:1000000010C01FC01EC01DC01CC01BC01AC019C01C
:1000100018C017C016C015C014C013C012C011C03C
:1000200010C011241FBECFE5D2E0DEBFCDBF10E06F
:10003000A0E6B0E001C01D92A236B107E1F75FD0A3
:100040007EC0DECFE6E3F0E0808180FFFDCF8081DF
:1000500081FFFACFE6E3F0E0808180FF03C080817A
:1000600081FDFACFB19B08C0B09906C0E6E3F0E08D
:10007000808181FDFDCF0895E5DF089540E027E010
:1000800030E0E6E3F0E061E070E0808181FFFDCFE9
:10009000808180FF08C0CB01022E02C0880F991F0B
:1000A0000A94E2F7482B808181FDFDCF215030403A
:1000B0008FEF2F3F380749F7842F0895E7E3F0E0EB
:1000C000908191609083882331F4E8E3F0E08081AF
:1000D0008E7F808305C0E8E3F0E0808181608083CB
:1000E00080ED97E00197F1F7E6E3F0E0808181FD94
:1000F000FDCFE7E3F0E080818E7F80830895E8E321
:10010000F0E08081816080838081826080839ADFDB
:10011000B5DF982F8695833379F490FD0DC080E08C
:10012000CDDFACDF8093600080E0C8DFA7DF809385
:10013000600080E0C3DFEBCF81E0C0DFE8CFF89460
:02014000FFCFEF
:00000001FF
