:1000000010C02AC029C028C027C026C0A3C324C04E
:1000100023C022C021C020C01FC01EC01DC01CC0E4
:100020001BC011241FBECFE5D2E0DEBFCDBF10E064
:10003000A0E6B0E0EAE6FFE002C005900D92A63D22
:10004000B107D9F710E0A6EDB0E001C01D92A43FC2
:10005000B107E1F737D287C7D3CF0F93DF93CF93A1
:10006000CDB7DEB728970FB6F894DEBF0FBECDBF71
:1000700029833A834B835C83262F6D837E838F8312
:100080009887E981FA819081402F407F9F70492BAA
:100090004083908141E050E0BA0102C0660F771FB3
:1000A0002A95E2F79B01209529232083908102C0A5
:1000B000440F551F8A95E2F7842F892B808321E016
:1000C000822F8A95F1F78081942F909589238083E0
:1000D00082E48A95F1F780810295007F8F70082B6A
:1000E00000838081842B80832A95F1F78081982377
:1000F000908384EF91E00197F1F728960FB6F8947A
:10010000DEBF0FBECDBFCF91DF910F9108950F934A
:10011000DF93CF93CDB7DEB728970FB6F894DEBF45
:100120000FBECDBF29833A834B835C83462F6D83FB
:100130007E838F839887E981FA819081202F207FA9
:100140009F70292B2083908121E030E0B90102C00B
:10015000660F771F4A95E2F7962B9083908102C035
:10016000220F331F8A95E2F7822F892B808341E08B
:10017000842F8A95F1F78081922F9095892380832F
:1001800082E48A95F1F780810295007F8F70082BB9
:1001900000838081822B80834A95F1F780819823A8
:1001A000908384EF91E00197F1F728960FB6F894C9
:1001B000DEBF0FBECDBFCF91DF910F9108950F939A
:1001C000DF93CF93CDB7DEB728970FB6F894DEBF95
:1001D0000FBECDBF29833A834B835C836D837E83BF
:1001E0008F839887EB81FC818FEF808388E893E190
:1001F0000197F1F729813A814B815C816D817E8184
:100200008F81988502E029DF29813A814B815C81C9
:100210006D817E818F81988508E21FDF29813A8177
:100220004B815C816D817E818F8198850CE015DF2B
:1002300029813A814B815C816D817E818F81988596
:1002400006E00BDF29813A814B815C816D817E81E3
:100250008F81988501E001DF8EEE92E00197F1F742
:1002600028960FB6F894DEBF0FBECDBFCF91DF91B9
:100270000F910895EF92FF920F931F93DF93CF9307
:10028000CDB7DEB728970FB6F894DEBF0FBECDBF4F
:1002900029833A834B835C836D837E838F83988726
:1002A000F8010081002389F07F0129813A814B8187
:1002B0005C816D817E818F81988529DFF7010181C5
:1002C0000894E11CF11C002381F728960FB6F894DE
:1002D000DEBF0FBECDBFCF91DF911F910F91FF9079
:1002E000EF900895CF92DF92EF920F931F93DF93D9
:1002F000CF93CDB7DEB728970FB6F894DEBF0FBE09
:10030000CDBF29833A834B835C836D837E838F8348
:1003100098878E2D002341F48031B4F40E2D0F7098
:1003200000688F819ADE10C0013071F4803164F46E
:100330000E2D0F70006C29813A814B815C816D819B
:100340007E818F81988589DE29813A814B815C810C
:100350006D817E818F81988586018CDF28960FB60E
:10036000F894DEBF0FBECDBFCF91DF911F910F91EB
:10037000EF90DF90CF9008950F931F93DF93CF936B
:10038000CDB7DEB728970FB6F894DEBF0FBECDBF4E
:1003900029833A834B835C836D837E838F83988725
:1003A00001E05BDE84EF91E00197F1F729813A816A
:1003B0004B815C816D817E818F81988500E84DDE67
:1003C00028960FB6F894DEBF0FBECDBFCF91DF9158
:1003D0001F910F910895E1E3F0E0808183608083B5
:1003E000E2E3F0E0808181608083808182608083AD
:1003F0000895E2E3F0E08081816080838081826003
:10040000808322EE34E0C9010197F1F780818E7F6D
:100410008083C9010197F1F780818D7F80830895E2
:10042000E2E3F0E080818E7F808380818260808340
:1004300022EE34E0C9010197F1F780818160808369
:10044000C9010197F1F70895382F20E0E2E3F0E0C9
:1004500042EE54E0332324F480818160808303C022
:1004600080818E7F8083CA010197F1F7808182604D
:100470008083CA010197F1F780818D7F80832F5F90
:10048000283011F0330FE6CFE2E3F0E080818160A5
:100490008083A1E3B0E08C918E7F8C9322EE34E0D8
:1004A000C9010197F1F7808182608083C9010197BA
:1004B000F1F780B390819D7F90839C9191609C9394
:1004C000817008952F923F924F925F926F927F9228
:1004D0008F929F92AF92BF92CF92DF92EF92FF9254
:1004E0000F931F93DF93CF93CDB7DEB769970FB606
:1004F000F894DEBF0FBECDBF2091C6003091C7007B
:100500004091C8005091C9006091CA007091CB0021
:100510008091CC009091CD0052DE2091CE003091A0
:10052000CF004091D0005091D1006091D2007091E5
:10053000D3008091D4009091D50041DE2091C60077
:100540003091C7004091C8005091C9006091CA0025
:100550007091CB008091CC009091CD0000E610E02E
:1005600089DE39DF1FBC85E08EBD80EF91EF9DBD38
:100570008CBD18BE80E889BF1BBEEAE3F0E0808135
:10058000807C8083EBE3F0E080818F6380837894CC
:1005900089B30F2EFFE3BF2EF02DB8220F2EF9E303
:1005A0002F2E3324F02D4424552488249924839419
:1005B000CE010596998F888FCE0101968E8B9F8BE9
:1005C0000F2EF4ED6F2EF0E37F2EF02DD1018C91E4
:1005D0000F2EFFE3AF2EF02DA8220F2EF2EECF2E1E
:1005E000F0E0DF2EF02D7201C4010E2C02C0880F46
:1005F000991F0A94E2F7982F8B2109F49AC0892F4A
:100600008A2109F096C02091CE003091CF00409110
:10061000D0005091D1006091D2007091D3008091B0
:10062000D4009091D500A8DEF6014181242F332714
:1006300027FD30958081992787FD9095281B390BE0
:100640001AF4309521953F4F2230310534F4D6010C
:1006500012968C91882309F059C0842F69E097D1B4
:100660009F5FF6019183913029F48081882311F0F6
:1006700081E0828319821A821B821C82A88DB98D27
:10068000E1E11D92EA95E9F78DB79EB70A970FB69B
:10069000F8949EBF0FBE8DBFEDB7FEB73196A1E0B7
:1006A000B0E0AC0FBD1FB183A08385E190E09383E0
:1006B0008283A1E8B0E0B583A483C7010196978344
:1006C0008683D60111968C91992787FD9095918705
:1006D000808776D1EDB7FEB73A960FB6F894FEBF95
:1006E0000FBEEDBF2091CE003091CF004091D000E1
:1006F0005091D1006091D2007091D3008091D400CC
:100700009091D5000E891F89B5DD13C02091CE00D0
:100710003091CF004091D0005091D1006091D20033
:100720007091D3008091D4009091D50000E910E041
:10073000A1DD0894E11CF11C83E090E0C80ED91EF5
:1007400096E0E916F10409F04FCFC3010197F1F7E4
:10075000BA2C3CCF1F920F920FB60F9211248F929A
:100760009F92BF92CF92DF92EF92FF920F931F93CF
:100770002F933F934F935F936F937F938F939F93A9
:10078000AF93BF93EF93FF93DF93CF93CDB7DEB7D4
:10079000A097DEBFCDBF80EF91EF9DBD8CBD0F2E2A
:1007A000FCEDCF2EF0E0DF2EF02D02EE10E0EE2477
:1007B000FF240F2EF0EC8F2EF0E09F2EF02DBE2C9C
:1007C000D6018C918F5F8C93F401EE0DFF1D90810B
:1007D000891798F1F8018281882329F49181808119
:1007E000891754F023C0813009F5D80111969C91E6
:1007F00011978C919817D4F4F6011082D8018C913E
:1008000069E0C5D09F5F9C93913011F412961C92C1
:10081000F0DD86E619DE882339F48B2D15DE88237A
:1008200019F4F801808110DEFBDD07C0D8011C92AD
:1008300011961C92119712961C920894E11CF11CBF
:100840000894C11CD11C0D5F1F4FB6E0EB16F104DC
:1008500009F0B5CF19821A821B821C82FE013596DF
:100860008CE1DF011D928A95E9F7EDB7FEB772972B
:100870000FB6F894FEBF0FBEEDBF31967E0108940F
:10088000E11CF11CF182E08280E290E0938382839C
:100890008AE990E095838483A2EEB0E08C91992759
:1008A00087FD90959783868313968C91139799274C
:1008B00087FD90959187808716968C91169799273A
:1008C00087FD90959387828719968C911997992720
:1008D00087FD9095958784871C968C911C97992706
:1008E00087FD9095978786871F968C91992787FD1E
:1008F0009095918B808B64D08DB79EB742960FB642
:10090000F8949EBF0FBE8DBF2091C6003091C700E6
:100910004091C8005091C9006091CA007091CB000D
:100920008091CC009091CD0000EC97DB2091C60027
:100930003091C7004091C8005091C9006091CA0031
:100940007091CB008091CC009091CD00870192DC1A
:10095000A096DEBFCDBFCF91DF91FF91EF91BF9108
:10096000AF919F918F917F916F915F914F913F9147
:100970002F911F910F91FF90EF90DF90CF90BF903C
:100980009F908F900F900FBE0F901F90189587FB30
:10099000082E062687FD819567FD619505D00EF42A
:1009A000919507FC81950895991B79E004C0991FE2
:1009B000961708F0961B881F7A95C9F780950895B9
:1009C000AEE0B0E0E5EEF4E0A5C20D891E898F89A6
:1009D000988D97FF02C080E090E801979E838D83F9
:1009E0001A83098386E08C839E01255E3F4FCE01EA
:1009F0000196698D7A8DA90111D04D815E8157FDD7
:100A00000AC02F813885421753070CF49A01020F50
:100A1000131FF80110822E96E4E098C2ABE0B0E01C
:100A2000E3E1F5E069C23C012B015A01FC011782A8
:100A30001682838181FD03C06FEF7FEFB9C19AE019
:100A4000892E1E010894211C311CF3012381F2011F
:100A500023FD859123FF81912F01882309F4A5C1EE
:100A6000853239F423FD859123FF81912F01853251
:100A700021F490E0B301B6D1E8CF982FFF24EE2403
:100A80009924FFE1FF15D0F09B3269F09C3228F4E5
:100A9000903259F0933291F40EC09D3249F0903368
:100AA00069F441E024C052E0F52A84E0F82A28C025
:100AB00098E0F92A25C0E0E1FE2A22C0F7FC29C00F
:100AC000892F80538A3070F4F6FE05C0989C902CD4
:100AD0001124980E15C0E89CE02C1124E80EF0E2D9
:100AE000FF2A0EC09E3229F4F6FC5FC140E4F42ACE
:100AF00007C09C3619F450E8F52A02C0983649F42C
:100B0000F20123FD959123FF91912F01992309F083
:100B1000B8CF892F8554833018F08052833038F451
:100B200044E050E0A40EB51E5FE359830FC0933636
:100B300031F0933779F0933509F052C01FC0F501B9
:100B40008081898342E050E0A40EB51E610101E07E
:100B500010E011C0F501C080D180F6FC03C06FEF3A
:100B60007FEF02C0692D70E042E050E0A40EB51E98
:100B7000C6012DD18C015FE7F52213C0F501C080BD
:100B8000D180F6FC03C06FEF7FEF02C0692D70E0EB
:100B900042E050E0A40EB51EC6010ED18C0150E813
:100BA000F52AF3FE06C018C080E290E0B3011AD126
:100BB000EA948E2D90E008171907B0F30DC0F601E6
:100BC000F7FC8591F7FE81916F0190E0B3010AD1A6
:100BD000E110EA94015010400115110581F7E2C0BF
:100BE000943611F0993661F5F7FE08C0F5012081C1
:100BF00031814281538184E090E00AC0F501808117
:100C000091819C01442737FD4095542F82E090E06C
:100C1000A80EB91E9FE6F92257FF09C050954095CE
:100C2000309521953F4F4F4F5F4FE0E8FE2ACA01B4
:100C3000B901A1012AE030E001D1D82ED2183FC07D
:100C4000953729F41F2D1F7E2AE030E01DC01F2D8F
:100C5000197F9F3661F0903720F4983509F0A5C0D0
:100C60000FC0903739F0983709F09FC004C028E0D2
:100C700030E00AC0106114FD146020E130E004C0CF
:100C800014FD166020E132E017FF08C0F501608115
:100C900071818281938144E050E008C0F501808138
:100CA0009181BC0180E090E042E050E0A40EB51ECE
:100CB000A101C4D0D82ED2188FE7F82EF122F6FE6B
:100CC0000BC05EEFF522D91438F4F4FE07C0F2FC35
:100CD00005C08FEEF82202C01D2D01C0192DF4FEB3
:100CE0000DC0FE01ED0DF11D8081803319F499EEE8
:100CF000F92208C01F5FF2FE05C003C08F2D867861
:100D000009F01F5F0F2DF3FC13C0F0FE0EC01E157F
:100D100010F09D2C0AC09D2C9E0C911A1E2D05C012
:100D200080E290E0B3015ED01F5F1E15C8F304C0DF
:100D30001E1510F4E11A01C0EE2404FF0EC080E37A
:100D400090E0B3014FD002FF1BC001FD03C088E754
:100D500090E00EC088E590E00BC0802F867881F08F
:100D600001FF02C08BE201C080E2F7FC8DE290E05F
:100D7000B30138D005C080E390E0B30133D09A943A
:100D8000D914C8F3DA94F101ED0DF11D808190E0E2
:100D9000B30128D0DD20B1F705C080E290E0B301B7
:100DA00021D0EA94EE20C9F750CEF3016681778115
:100DB000CB012B96E2E1BCC0FC0105906150704074
:100DC0000110D8F7809590958E0F9F1F0895FC0114
:100DD0006150704001900110D8F7809590958E0F6A
:100DE0009F1F08950F931F93CF93DF938C01EB0107
:100DF0008B8181FF1BC082FF0DC02E813F818C81C2
:100E00009D812817390764F4E881F9810193F983FA
:100E1000E88306C0E885F985802F0995892B31F490
:100E20008E819F8101969F838E8302C00FEF1FEFFB
:100E3000C801DF91CF911F910F910895FA01AA2760
:100E4000283051F1203181F1E8946F936E7F6E5F0D
:100E50007F4F8F4F9F4FAF4FB1E03ED0B4E03CD0BB
:100E6000670F781F891F9A1FA11D680F791F8A1F9E
:100E7000911DA11D6A0F711D811D911DA11D20D005
:100E800009F468943F912AE0269F11243019305DBF
:100E90003193DEF6CF010895462F4770405D4193B0
:100EA000B3E00FD0C9F7F6CF462F4F70405D4A33FD
:100EB00018F0495D31FD4052419302D0A9F7EACFC5
:100EC000B4E0A6959795879577956795BA95C9F7F4
:100ED00000976105710508959B01AC010A2E0694E7
:100EE0005795479537952795BA95C9F7620F731FA0
:100EF000841F951FA01D08952F923F924F925F92DD
:100F00006F927F928F929F92AF92BF92CF92DF9219
:100F1000EF92FF920F931F93CF93DF93CDB7DEB77E
:100F2000CA1BDB0B0FB6F894DEBF0FBECDBF099412
:100F30002A88398848885F846E847D848C849B8469
:100F4000AA84B984C884DF80EE80FD800C811B8177
:100F5000AA81B981CE0FD11D0FB6F894DEBF0FBEA6
:0A0F6000CDBFED010895F894FFCF16
:100F6A007C202031207C202032207C202033207CD1
:100F7A00202034207C202035207C20203620207C14
:100F8A00007175657565202531643A202532640043
:100F9A006E6F20706C61636573007C20253264205B
:100FAA007C20253264207C20253264207C20253256
:100FBA0064207C20253264207C20253264207C0039
:100FCA00010203050507380037000000010035005B
:060FDA00340000000100DC
:00000001FF
